{
  "contractName": "Hangman",
  "abi": [
    {
      "inputs": [],
      "name": "gameStatus",
      "outputs": [
        {
          "internalType": "enum Hangman.GameStatus",
          "name": "",
          "type": "uint8"
        }
      ],
      "stateMutability": "view",
      "type": "function"
    },
    {
      "inputs": [],
      "name": "trysLeft",
      "outputs": [
        {
          "internalType": "uint256",
          "name": "",
          "type": "uint256"
        }
      ],
      "stateMutability": "view",
      "type": "function"
    },
    {
      "inputs": [],
      "name": "winner",
      "outputs": [
        {
          "internalType": "enum Hangman.Winner",
          "name": "",
          "type": "uint8"
        }
      ],
      "stateMutability": "view",
      "type": "function"
    },
    {
      "inputs": [
        {
          "internalType": "bytes32",
          "name": "_bytes32",
          "type": "bytes32"
        }
      ],
      "name": "bytes32ToString",
      "outputs": [
        {
          "internalType": "string",
          "name": "",
          "type": "string"
        }
      ],
      "stateMutability": "pure",
      "type": "function"
    },
    {
      "inputs": [],
      "name": "gameIsWonCheck",
      "outputs": [
        {
          "internalType": "bool",
          "name": "",
          "type": "bool"
        }
      ],
      "stateMutability": "view",
      "type": "function"
    },
    {
      "inputs": [
        {
          "internalType": "string",
          "name": "word",
          "type": "string"
        }
      ],
      "name": "createGame",
      "outputs": [],
      "stateMutability": "nonpayable",
      "type": "function"
    },
    {
      "inputs": [
        {
          "internalType": "string",
          "name": "_letter",
          "type": "string"
        }
      ],
      "name": "guessALetter",
      "outputs": [],
      "stateMutability": "nonpayable",
      "type": "function"
    },
    {
      "inputs": [],
      "name": "burnedLettersLength",
      "outputs": [
        {
          "internalType": "uint256",
          "name": "",
          "type": "uint256"
        }
      ],
      "stateMutability": "view",
      "type": "function"
    },
    {
      "inputs": [
        {
          "internalType": "uint256",
          "name": "position",
          "type": "uint256"
        }
      ],
      "name": "burnedLetterFromPostion",
      "outputs": [
        {
          "internalType": "string",
          "name": "",
          "type": "string"
        }
      ],
      "stateMutability": "view",
      "type": "function"
    },
    {
      "inputs": [],
      "name": "prizeWordLength",
      "outputs": [
        {
          "internalType": "uint256",
          "name": "",
          "type": "uint256"
        }
      ],
      "stateMutability": "view",
      "type": "function"
    },
    {
      "inputs": [
        {
          "internalType": "uint256",
          "name": "position",
          "type": "uint256"
        }
      ],
      "name": "prizeWordCharFromPostion",
      "outputs": [
        {
          "internalType": "string",
          "name": "",
          "type": "string"
        }
      ],
      "stateMutability": "view",
      "type": "function"
    }
  ],
  "bytecode": "0x60806040526040518060400160405280600181526020017f2300000000000000000000000000000000000000000000000000000000000000815250600690805190602001906200005192919062000066565b503480156200005f57600080fd5b506200017b565b828054620000749062000116565b90600052602060002090601f016020900481019282620000985760008555620000e4565b82601f10620000b357805160ff1916838001178555620000e4565b82800160010185558215620000e4579182015b82811115620000e3578251825591602001919060010190620000c6565b5b509050620000f39190620000f7565b5090565b5b8082111562000112576000816000905550600101620000f8565b5090565b600060028204905060018216806200012f57607f821691505b602082108114156200014657620001456200014c565b5b50919050565b7f4e487b7100000000000000000000000000000000000000000000000000000000600052602260045260246000fd5b61172f806200018b6000396000f3fe608060405234801561001057600080fd5b50600436106100a95760003560e01c8063722fed7e11610071578063722fed7e14610164578063806baea1146101825780639201de55146101a0578063b09b32a4146101d0578063dfbf53ae146101ee578063ef6aa2ce1461020c576100a9565b8063226fc7f4146100ae57806327a6096c146100ca5780632ebc0504146100fa578063439f8c65146101165780636588d4db14610134575b600080fd5b6100c860048036038101906100c3919061123e565b61022a565b005b6100e460048036038101906100df919061127f565b6105e6565b6040516100f1919061136e565b60405180910390f35b610114600480360381019061010f919061123e565b6106d3565b005b61011e6109dd565b60405161012b9190611390565b60405180910390f35b61014e6004803603810190610149919061127f565b6109ea565b60405161015b919061136e565b60405180910390f35b61016c610ad7565b6040516101799190611338565b60405180910390f35b61018a610ae8565b6040516101979190611390565b60405180910390f35b6101ba60048036038101906101b59190611215565b610af5565b6040516101c7919061136e565b60405180910390f35b6101d8610d4e565b6040516101e59190611390565b60405180910390f35b6101f6610d54565b6040516102039190611353565b60405180910390f35b610214610d67565b604051610221919061131d565b60405180910390f35b600181511461023857600080fd5b600180811115610271577f4e487b7100000000000000000000000000000000000000000000000000000000600052602160045260246000fd5b60008054906101000a900460ff1660018111156102b7577f4e487b7100000000000000000000000000000000000000000000000000000000600052602160045260246000fd5b146102c157600080fd5b6000805b600480549050811015610427576102db83610fa4565b6103b060048381548110610318577f4e487b7100000000000000000000000000000000000000000000000000000000600052603260045260246000fd5b90600052602060002001805461032d90611500565b80601f016020809104026020016040519081016040528092919081815260200182805461035990611500565b80156103a65780601f1061037b576101008083540402835291602001916103a6565b820191906000526020600020905b81548152906001019060200180831161038957829003601f168201915b5050505050610fa4565b14156104145782600582815481106103f1577f4e487b7100000000000000000000000000000000000000000000000000000000600052603260045260246000fd5b90600052602060002001908051906020019061040e929190610fce565b50600191505b808061041f90611563565b9150506102c5565b50600382908060018154018082558091505060019003906000526020600020016000909190919091509080519060200190610463929190610fce565b5080610482576001600081548092919061047c906114d6565b91905055505b6000600154116105325760008060006101000a81548160ff021916908360018111156104d7577f4e487b7100000000000000000000000000000000000000000000000000000000600052602160045260246000fd5b02179055506000600260006101000a81548160ff02191690836001811115610528577f4e487b7100000000000000000000000000000000000000000000000000000000600052602160045260246000fd5b02179055506105e2565b61053a610d67565b156105e15760008060006101000a81548160ff0219169083600181111561058a577f4e487b7100000000000000000000000000000000000000000000000000000000600052602160045260246000fd5b02179055506001600260006101000a81548160ff021916908360018111156105db577f4e487b7100000000000000000000000000000000000000000000000000000000600052602160045260246000fd5b02179055505b5b5050565b606060058054905060058054905010156105ff57600080fd5b60058281548110610639577f4e487b7100000000000000000000000000000000000000000000000000000000600052603260045260246000fd5b90600052602060002001805461064e90611500565b80601f016020809104026020016040519081016040528092919081815260200182805461067a90611500565b80156106c75780601f1061069c576101008083540402835291602001916106c7565b820191906000526020600020905b8154815290600101906020018083116106aa57829003601f168201915b50505050509050919050565b6000600181111561070d577f4e487b7100000000000000000000000000000000000000000000000000000000600052602160045260246000fd5b60008054906101000a900460ff166001811115610753577f4e487b7100000000000000000000000000000000000000000000000000000000600052602160045260246000fd5b1461075d57600080fd5b60016000806101000a81548160ff021916908360018111156107a8577f4e487b7100000000000000000000000000000000000000000000000000000000600052602160045260246000fd5b02179055506000600260006101000a81548160ff021916908360018111156107f9577f4e487b7100000000000000000000000000000000000000000000000000000000600052602160045260246000fd5b0217905550600a600181905550600360006108149190611054565b600560006108229190611054565b600460006108309190611054565b60005b61083c82610fa4565b50602060ff1681101561097857600060f81b61085783610fa4565b826020811061088f577f4e487b7100000000000000000000000000000000000000000000000000000000600052603260045260246000fd5b1a60f81b7effffffffffffffffffffffffffffffffffffffffffffffffffffffffffffff19161461096557600461092b6108c884610fa4565b8360208110610900577f4e487b7100000000000000000000000000000000000000000000000000000000600052603260045260246000fd5b1a60f81b7effffffffffffffffffffffffffffffffffffffffffffffffffffffffffffff1916610af5565b908060018154018082558091505060019003906000526020600020016000909190919091509080519060200190610963929190610fce565b505b808061097090611563565b915050610833565b5060005b81518110156109d95760056006908060018154018082558091505060019003906000526020600020016000909190919091509080546109ba90611500565b6109c5929190611075565b5080806109d190611563565b91505061097c565b5050565b6000600380549050905090565b60606003805490506003805490501015610a0357600080fd5b60038281548110610a3d577f4e487b7100000000000000000000000000000000000000000000000000000000600052603260045260246000fd5b906000526020600020018054610a5290611500565b80601f0160208091040260200160405190810160405280929190818152602001828054610a7e90611500565b8015610acb5780601f10610aa057610100808354040283529160200191610acb565b820191906000526020600020905b815481529060010190602001808311610aae57829003601f168201915b50505050509050919050565b60008054906101000a900460ff1681565b6000600580549050905090565b606060005b60208160ff16108015610b725750600060f81b838260ff1660208110610b49577f4e487b7100000000000000000000000000000000000000000000000000000000600052603260045260246000fd5b1a60f81b7effffffffffffffffffffffffffffffffffffffffffffffffffffffffffffff191614155b15610b8a578080610b82906115ac565b915050610afa565b60008160ff1667ffffffffffffffff811115610bcf577f4e487b7100000000000000000000000000000000000000000000000000000000600052604160045260246000fd5b6040519080825280601f01601f191660200182016040528015610c015781602001600182028036833780820191505090505b509050600091505b60208260ff16108015610c815750600060f81b848360ff1660208110610c58577f4e487b7100000000000000000000000000000000000000000000000000000000600052603260045260246000fd5b1a60f81b7effffffffffffffffffffffffffffffffffffffffffffffffffffffffffffff191614155b15610d4457838260ff1660208110610cc2577f4e487b7100000000000000000000000000000000000000000000000000000000600052603260045260246000fd5b1a60f81b818360ff1681518110610d02577f4e487b7100000000000000000000000000000000000000000000000000000000600052603260045260246000fd5b60200101907effffffffffffffffffffffffffffffffffffffffffffffffffffffffffffff1916908160001a9053508180610d3c906115ac565b925050610c09565b8092505050919050565b60015481565b600260009054906101000a900460ff1681565b600080600090506005805490506004805490501415610f845760005b600480549050811015610f82578060048054905010158015610daa57508060058054905010155b15610f6f57610e8460058281548110610dec577f4e487b7100000000000000000000000000000000000000000000000000000000600052603260045260246000fd5b906000526020600020018054610e0190611500565b80601f0160208091040260200160405190810160405280929190818152602001828054610e2d90611500565b8015610e7a5780601f10610e4f57610100808354040283529160200191610e7a565b820191906000526020600020905b815481529060010190602001808311610e5d57829003601f168201915b5050505050610fa4565b610f5960048381548110610ec1577f4e487b7100000000000000000000000000000000000000000000000000000000600052603260045260246000fd5b906000526020600020018054610ed690611500565b80601f0160208091040260200160405190810160405280929190818152602001828054610f0290611500565b8015610f4f5780601f10610f2457610100808354040283529160200191610f4f565b820191906000526020600020905b815481529060010190602001808311610f3257829003601f168201915b5050505050610fa4565b1415610f6e578180610f6a90611563565b9250505b5b8080610f7a90611563565b915050610d83565b505b600480549050811415610f9b576001915050610fa1565b60009150505b90565b600080829050600081511415610fc0576000801b915050610fc9565b60208301519150505b919050565b828054610fda90611500565b90600052602060002090601f016020900481019282610ffc5760008555611043565b82601f1061101557805160ff1916838001178555611043565b82800160010185558215611043579182015b82811115611042578251825591602001919060010190611027565b5b5090506110509190611102565b5090565b5080546000825590600052602060002090810190611072919061111f565b50565b82805461108190611500565b90600052602060002090601f0160209004810192826110a357600085556110f1565b82601f106110b457805485556110f1565b828001600101855582156110f157600052602060002091601f016020900482015b828111156110f05782548255916001019190600101906110d5565b5b5090506110fe9190611102565b5090565b5b8082111561111b576000816000905550600101611103565b5090565b5b8082111561113f57600081816111369190611143565b50600101611120565b5090565b50805461114f90611500565b6000825580601f106111615750611180565b601f01602090049060005260206000209081019061117f9190611102565b5b50565b6000611196611191846113d0565b6113ab565b9050828152602081018484840111156111ae57600080fd5b6111b9848285611494565b509392505050565b6000813590506111d0816116cb565b92915050565b600082601f8301126111e757600080fd5b81356111f7848260208601611183565b91505092915050565b60008135905061120f816116e2565b92915050565b60006020828403121561122757600080fd5b6000611235848285016111c1565b91505092915050565b60006020828403121561125057600080fd5b600082013567ffffffffffffffff81111561126a57600080fd5b611276848285016111d6565b91505092915050565b60006020828403121561129157600080fd5b600061129f84828501611200565b91505092915050565b6112b18161141d565b82525050565b6112c081611470565b82525050565b6112cf81611482565b82525050565b60006112e082611401565b6112ea818561140c565b93506112fa8185602086016114a3565b61130381611692565b840191505092915050565b61131781611459565b82525050565b600060208201905061133260008301846112a8565b92915050565b600060208201905061134d60008301846112b7565b92915050565b600060208201905061136860008301846112c6565b92915050565b6000602082019050818103600083015261138881846112d5565b905092915050565b60006020820190506113a5600083018461130e565b92915050565b60006113b56113c6565b90506113c18282611532565b919050565b6000604051905090565b600067ffffffffffffffff8211156113eb576113ea611663565b5b6113f482611692565b9050602081019050919050565b600081519050919050565b600082825260208201905092915050565b60008115159050919050565b6000819050919050565b6000819050611441826116a3565b919050565b6000819050611454826116b7565b919050565b6000819050919050565b600060ff82169050919050565b600061147b82611433565b9050919050565b600061148d82611446565b9050919050565b82818337600083830152505050565b60005b838110156114c15780820151818401526020810190506114a6565b838111156114d0576000848401525b50505050565b60006114e182611459565b915060008214156114f5576114f46115d6565b5b600182039050919050565b6000600282049050600182168061151857607f821691505b6020821081141561152c5761152b611634565b5b50919050565b61153b82611692565b810181811067ffffffffffffffff8211171561155a57611559611663565b5b80604052505050565b600061156e82611459565b91507fffffffffffffffffffffffffffffffffffffffffffffffffffffffffffffffff8214156115a1576115a06115d6565b5b600182019050919050565b60006115b782611463565b915060ff8214156115cb576115ca6115d6565b5b600182019050919050565b7f4e487b7100000000000000000000000000000000000000000000000000000000600052601160045260246000fd5b7f4e487b7100000000000000000000000000000000000000000000000000000000600052602160045260246000fd5b7f4e487b7100000000000000000000000000000000000000000000000000000000600052602260045260246000fd5b7f4e487b7100000000000000000000000000000000000000000000000000000000600052604160045260246000fd5b6000601f19601f8301169050919050565b600281106116b4576116b3611605565b5b50565b600281106116c8576116c7611605565b5b50565b6116d481611429565b81146116df57600080fd5b50565b6116eb81611459565b81146116f657600080fd5b5056fea26469706673582212206eac5b0090f34f1cb39378771b0c212d06b8fdd44b15bac2c3c1140e1c642af364736f6c63430008030033",
  "immutableReferences": {},
  "source": "pragma solidity >=0.8.0;\npragma experimental ABIEncoderV2;\n\ncontract Hangman {\n    enum Winner {Creator, Player}\n    enum GameStatus {Over, Running}\n\n    GameStatus public gameStatus;\n    uint public trysLeft;\n    Winner public winner;\n    string[] burnedLetters;\n    string[] letters;\n    string[] prizeWord;\n    string placeHolder = \"#\";\n\n    /** internals **/\n    function stringToBytes32(string memory source) internal pure returns (bytes32 result) {\n        bytes memory tempEmptyStringTest = bytes(source);\n        if (tempEmptyStringTest.length == 0) {\n            return 0x0;\n        }\n\n        assembly {\n            result := mload(add(source, 32))\n        }\n    }\n\n    function bytes32ToString(bytes32 _bytes32) public pure returns (string memory) {\n        uint8 i = 0;\n        while(i < 32 && _bytes32[i] != 0) {\n            i++;\n        }\n        bytes memory bytesArray = new bytes(i);\n        for (i = 0; i < 32 && _bytes32[i] != 0; i++) {\n            bytesArray[i] = _bytes32[i];\n        }\n        return string(bytesArray);\n    }\n\n    function gameIsWonCheck () public view returns (bool) {\n        uint correctLetterCount = 0;\n        if(letters.length == prizeWord.length) {\n            for (uint i = 0; i < letters.length; i++) {\n                if(letters.length >= i && prizeWord.length >= i){\n                    if (stringToBytes32(letters[i]) == stringToBytes32(prizeWord[i])) {\n                        correctLetterCount++;\n                    }\n                }\n            }\n        }\n\n        if(correctLetterCount == letters.length) {\n            return true;\n        }\n        return false;\n    }\n\n    /** publics **/\n    function createGame(string memory word) public {\n        // check length for 1\n        require(gameStatus == GameStatus.Over);\n\n        gameStatus = GameStatus.Running;\n        winner= Winner.Creator;\n        trysLeft = 10;\n        delete  burnedLetters;\n        delete prizeWord;\n        delete letters;\n\n        for(uint i; i < stringToBytes32(word).length ; i++){ \n            if(stringToBytes32(word)[i] != 0) {\n                letters.push(bytes32ToString(stringToBytes32(word)[i]));\n            }\n        }\n        for(uint i; i < bytes(word).length ; i++){ \n            prizeWord.push(placeHolder);\n        }\n    }\n\n    function guessALetter (string memory _letter) public {\n        // check length for 1\n        require(bytes(_letter).length == 1);\n        // game is not over\n        require(gameStatus == GameStatus.Running);\n\n        bool success = false;\n\n        for (uint i = 0; i < letters.length; i++) {\n            if (stringToBytes32(letters[i]) == stringToBytes32(_letter)) {\n                prizeWord[i] = _letter;\n                success = true;\n            }\n        }\n\n        burnedLetters.push(_letter);\n\n        if(!success) {\n            trysLeft--;\n        }\n\n        if (trysLeft <= 0) {\n            gameStatus = GameStatus.Over;\n            winner = Winner.Creator;\n        } else {\n            // check game is won\n            if(gameIsWonCheck()) {\n                gameStatus = GameStatus.Over;\n                winner = Winner.Player;\n            }\n        }\n    }\n\n    /** REQUEST GAME DATA **/\n    function burnedLettersLength() public view returns (uint) {\n        return burnedLetters.length;\n    }\n\n    function burnedLetterFromPostion(uint position) public view returns (string memory) {\n        require(burnedLetters.length >= burnedLetters.length);\n        \n        return burnedLetters[position];\n    }\n\n    function prizeWordLength() public view returns (uint) {\n        return prizeWord.length;\n    }\n\n    function prizeWordCharFromPostion(uint position) public view returns (string memory) { \n        require(prizeWord.length >= prizeWord.length);\n\n        return prizeWord[position];\n    }\n\n    // Debug\n    /*function lettersLength() public view returns (uint) {\n        return letters.length;\n    }\n    function lettersCharFromPostion(uint position) public view returns (string memory) { \n        return letters[position];\n    }*/\n}\n",
  "sourcePath": "/root/gw-gitcoin-instruction/src/examples/2-deploy-contract/contracts/Hangman.sol",
  "compiler": {
    "name": "solc",
    "version": "0.8.3+commit.8d00100c.Linux.g++"
  },
  "schemaVersion": "3.4.2",
  "updatedAt": "2021-08-23T12:43:17.164Z",
  "devdoc": {
    "kind": "dev",
    "methods": {},
    "version": 1
  },
  "userdoc": {
    "kind": "user",
    "methods": {
      "burnedLettersLength()": {
        "notice": "REQUEST GAME DATA *"
      },
      "createGame(string)": {
        "notice": "publics *"
      }
    },
    "version": 1
  }
}